:100000000C9462000C948A000C948A000C948A0070
:100010000C948A000C948A000C948A000C948A0038
:100020000C948A000C948A000C948A000C948A0028
:100030000C948A000C948A000C948A000C948A0018
:100040000C9444030C948A000C9412030C94EC025C
:100050000C948A000C948A000C948A000C948A00F8
:100060000C948A000C948A000000000024002700F1
:100070002A000000000023002600290000000000E4
:10008000250028002B0004040404040404040202D4
:100090000202020203030303030301020408102007
:1000A0004080010204081020010204081020000012
:1000B0000008000201000003040700000000000027
:1000C00000002E0511241FBECFEFD8E0DEBFCDBF4C
:1000D00011E0A0E0B1E0E8E4FBE002C005900D9281
:1000E000A631B107D9F721E0A6E1B1E001C01D9228
:1000F000A23CB207E1F710E0C2E6D0E004C02197CD
:10010000FE010E949C05C136D107C9F70E94D303A6
:100110000C94A2050C940000AF92BF92CF92DF9294
:10012000EF92FF920F931F93CF93DF936C017B01AC
:100130008B01040F151FEB015E01AE18BF08C0173D
:10014000D10759F06991D601ED91FC910190F081B0
:10015000E02DC6010995892B79F7C501DF91CF9173
:100160001F910F91FF90EF90DF90CF90BF90AF90D5
:100170000895FC01538D448D252F30E0842F90E0AD
:10018000821B930B541710F0CF9608950197089592
:10019000FC01918D828D981761F0A28DAE0FBF2F5B
:1001A000B11D5D968C91928D9F5F9F73928F90E0B1
:1001B00008958FEF9FEF0895FC01918D828D981720
:1001C00031F0828DE80FF11D858D90E008958FEF5D
:1001D0009FEF0895FC01918D228D892F90E0805C26
:1001E0009F4F821B91098F739927089585E291E0B3
:1001F0000E94EA0021E0892B09F420E0822F089573
:1002000080E090E0892B29F00E94F60081110C9487
:1002100000000895FC01A48DA80FB92FB11DA35AA9
:10022000BF4F2C91848D90E001968F739927848F16
:10023000A689B7892C93A089B1898C918370806439
:100240008C93938D848D981306C00288F389E02DDA
:1002500080818F7D80830895EF92FF920F931F938B
:10026000CF93DF93EC0181E0888F9B8D8C8D981369
:100270001AC0E889F989808185FF15C09FB7F89475
:10028000EE89FF896083E889F989808183708064C1
:1002900080839FBF81E090E0DF91CF911F910F910C
:1002A000FF90EF900895F62E0B8D10E00F5F1F4F1B
:1002B0000F731127E02E8C8D8E110CC00FB607FC2A
:1002C000FACFE889F989808185FFF5CFCE010E94B8
:1002D0000A01F1CFEB8DEC0FFD2FF11DE35AFF4F1B
:1002E000F0829FB7F8940B8FEA89FB898081806246
:1002F000CFCFCF93DF93EC01888D8823B9F0AA8903
:10030000BB89E889F9898C9185FD03C0808186FDD0
:100310000DC00FB607FCF7CF8C9185FFF2CF80811F
:1003200085FFEDCFCE010E940A01E9CFDF91CF9189
:100330000895833081F028F4813099F08230A9F05B
:1003400008958730A9F08830C9F08430B1F48091E5
:1003500080008F7D03C0809180008F778093800024
:10036000089584B58F7784BD089584B58F7DFBCFC4
:100370008091B0008F778093B00008958091B00095
:100380008F7DF9CF1F93CF93DF93E5EBF0E094914E
:10039000E1EAF0E0D491EDE8F0E0C491CC23B9F0CB
:1003A000182F992319F0892F0E949901EC2FF0E062
:1003B000EE0FFF1FE458FF4FA591B4918FB7F8944B
:1003C000EC91111108C0D095DE23DC938FBFDF9133
:1003D000CF911F910895DE2BF8CFCF93DF9390E05C
:1003E000FC01E656FF4F24918A579F4FFC018491F0
:1003F0008823D1F090E0880F991FFC01E859FF4F46
:10040000A591B491FC01E458FF4FC591D4916111BD
:100410000EC09FB7F8948C91E22FE0958E238C93B9
:100420002881E223E8839FBFDF91CF9108958FB7A2
:10043000F894EC91E22BEC938FBFF6CF3FB7F89492
:1004400080911B0190911C01A0911D01B0911E0192
:1004500026B5A89B05C02F3F19F00196A11DB11D1F
:100460003FBFBA2FA92F982F8827BC01CD01620F5B
:10047000711D811D911D42E0660F771F881F991F16
:100480004A95D1F708958F929F92AF92BF92CF92E3
:10049000DF92EF92FF924B015C010E941E026B0102
:1004A0007C010E941E026C197D098E099F09683E1D
:1004B000734081059105A8F321E0821A9108A108F3
:1004C000B10888EEC80E83E0D81EE11CF11C81142F
:1004D0009104A104B10429F7FF90EF90DF90CF9031
:1004E000BF90AF909F908F9008958F929F92AF9200
:1004F000BF920F931F93CF93DF93CDB7DEB7A19732
:100500000FB6F894DEBF0FBECDBF19A2423008F47B
:100510004AE08E010F5D1F4F842E912CB12CA12C2F
:10052000A50194010E945B05E62FB901CA01EA30DA
:1005300044F5E05DD801EE938D01232B242B252B70
:1005400079F790E080E0109769F0FD0101900020BC
:10055000E9F73197AF014A1B5B0BBD0185E291E0E2
:100560000E948C00A1960FB6F894DEBF0FBECDBFDF
:10057000DF91CF911F910F91BF90AF909F908F907F
:100580000895E95CD7CFCF92DF92EF92FF92CF939D
:10059000DF936B017C016DE285E291E00E942C010A
:1005A000EC0166277727CB016C197D098E099F091D
:1005B0004AE00E9475028C0F9D1FDF91CF91FF9042
:1005C000EF90DF90CF90089542E050E062E171E05B
:1005D00085E291E00C948C001F920F920FB60F925F
:1005E00011242F933F934F935F936F937F938F9338
:1005F0009F93AF93BF93EF93FF9385E291E00E94A7
:100600000A01FF91EF91BF91AF919F918F917F91DF
:100610006F915F914F913F912F910F900FBE0F906F
:100620001F9018951F920F920FB60F9211242F93BF
:100630008F939F93EF93FF93E0913501F0913601F3
:100640008081E0913B01F0913C0182FD1BC09081D3
:1006500080913E018F5F8F7320913F01821741F09F
:10066000E0913E01F0E0EB5DFE4F958F80933E01FF
:10067000FF91EF919F918F912F910F900FBE0F904F
:100680001F9018958081F4CF1F920F920FB60F9292
:1006900011242F933F938F939F93AF93BF93809198
:1006A000170190911801A0911901B0911A01309190
:1006B000160123E0230F2D3758F50196A11DB11D1A
:1006C000209316018093170190931801A0931901AC
:1006D000B0931A0180911B0190911C01A0911D0102
:1006E000B0911E010196A11DB11D80931B01909335
:1006F0001C01A0931D01B0931E01BF91AF919F916A
:100700008F913F912F910F900FBE0F901F901895D2
:1007100026E8230F0296A11DB11DD2CFCF92DF9202
:10072000EF92FF920F931F93E82FF92F05C001500E
:1007300011092109310961F1908196239417B9F3C8
:1007400005C0015011092109310911F19081962349
:100750009413F7CFC12CD12CE12CF12C0AC08FEFD0
:10076000C81AD80AE80AF80A0C151D052E053F0517
:1007700079F080818623841791F36C2D7D2D8E2D49
:100780009F2D1F910F91FF90EF90DF90CF900895D4
:1007900060E070E080E090E01F910F91FF90EF909B
:1007A000DF90CF900895789484B5826084BD84B53D
:1007B000816084BD85B5826085BD85B5816085BD5C
:1007C00080916E00816080936E0010928100809114
:1007D000810082608093810080918100816080939C
:1007E0008100809180008160809380008091B100C1
:1007F00084608093B1008091B00081608093B000EC
:1008000080917A00846080937A0080917A0082607F
:1008100080937A0080917A00816080937A00809141
:100820007A00806880937A001092C100E0913501CF
:10083000F091360182E08083E0913101F091320144
:100840001082E0913301F09134018FEC808310929B
:100850003D01E0913901F0913A0186E08083E09119
:100860003701F0913801808180618083E091370108
:10087000F0913801808188608083E0913701F091A8
:100880003801808180688083E0913701F0913801E0
:1008900080818F7D808360E08EE00E94ED0160E0CA
:1008A00089E00E94ED0160E086E00E94ED0161E0D8
:1008B00087E00E94ED01C3E0D0E023E2E22EF12CBC
:1008C00030EA832E30E0932E4AE3442E512C612CE3
:1008D000712C53EA252E50E0352E6FE8C62E60E0CD
:1008E000D62E70E0A72E70E0B72E80E00E94C201E5
:1008F000CE010197F1F781E00E94C201C701019783
:10090000F1F780E00E94C201F4016491ECE8F0E0AC
:100910008491E82FF0E0EE0FFF1FEE58FF4F859116
:10092000949100E412E42FE030E0462F0E948E0301
:10093000611571058105910529F06F5F7F4F8F4F1C
:100940009F4F9F70A30192010E947D05209321017A
:10095000309322014093230150932401F0E4F0935B
:100960007C0080917A00806480937A0080917A0084
:1009700086FDFCCF90917800809179008927982797
:1009800089279093200180931F01E7EBF0E0849189
:10099000F1011491F601049170E060E0002399F0F8
:1009A00081110E949901E02FF0E0EE0FFF1FEE5839
:1009B000FF4FA591B4918C91182391E080E009F448
:1009C00090E0692F782F072E000C880B990B4AE0D6
:1009D0000E9475020E94E40264E670E080E090E00C
:1009E0000E944302609121017091220180912301B4
:1009F0009091240197FF2AC00E94C3020E94E40242
:100A000064E670E080E090E00E94430260911F0184
:100A100070912001072E000C880B990B97FF1AC0CC
:100A20000E94C3020E94E40264EF71E080E090E063
:100A30000E944302A114B10409F457CF0E94F600AA
:100A4000882309F452CF0E9400004FCF4AE00E9451
:100A50007502D4CF4AE00E947502E4CFE5E2F1E0EE
:100A60001382128288EE93E0A0E0B0E08483958345
:100A7000A683B78384E091E09183808385EC90E046
:100A80009587848784EC90E09787868780EC90E058
:100A9000918B808B81EC90E0938B828B82EC90E049
:100AA000958B848B86EC90E0978B868B118E128EC3
:100AB000138E148E0895A1E21A2EAA1BBB1BFD01F2
:100AC0000DC0AA1FBB1FEE1FFF1FA217B307E4072D
:100AD000F50720F0A21BB30BE40BF50B661F771F85
:100AE000881F991F1A9469F7609570958095909565
:100AF0009B01AC01BD01CF010895052E97FB1EF4AB
:100B000000940E94940557FD07D00E945B0507FCE6
:100B100003D04EF40C949405509540953095219552
:100B20003F4F4F4F5F4F0895909580957095619519
:100B30007F4F8F4F9F4F0895EE0FFF1F0590F49149
:080B4000E02D0994F894FFCFA9
:100B4800000000002C018C00B9007901EA00C800FF
:060B5800DC000D0A0000A4
:00000001FF
